:100000000C9434000C9451000C9451000C94510049
:100010000C9451000C9451000C9451000C9451001C
:100020000C9451000C9451000C9451000C9451000C
:100030000C9451000C9451000C9451000C945100FC
:100040000C9451000C9451000C9451000C945100EC
:100050000C9451000C9451000C9451000C945100DC
:100060000C94DB010C94510011241FBECFEFD8E09B
:10007000DEBFCDBF11E0A0E0B1E0ECE2F6E002C0EF
:1000800005900D92A83DB107D9F722E0A8EDB1E0A7
:1000900001C01D92A635B207E1F70E944F020C94F1
:1000A00014030C9400009B01AC0188E18093C10013
:1000B00084E0220F331F441F551F8A95D1F760E05B
:1000C00074E284EF90E00E947A022150310930936B
:1000D000C5002093C4008091F0018B7F8093F001D4
:1000E00008959091F00192FD06C09091C00095FF97
:1000F000FCCF8093C6000895CF93DF93EC018991E4
:10010000882319F00E947100FACFDF91CF910895F2
:100110004F925F926F927F928F929F92AF92BF9217
:10012000CF92DF92EF92FF920F931F93CF93DF93C3
:10013000CDB7DEB764970FB6F894DEBF0FBECDBF64
:10014000FE01B796A190B1908F01612C7E018BE0EA
:10015000E80EF11CFE0131966F0190E3792E250126
:10016000FFEF4F1A5F0AF5018491882309F480C0DC
:10017000853209F079C04501F2E08F0E911CF20141
:100180002491822F90E0C0970A9760F429831A8205
:10019000C6010E949C02682EF3E0AF0EB11CF40170
:1001A00024914501293651F130F4223661F023368D
:1001B000C9F05401D4CF233741F02837E9F02F3666
:1001C000C1F748E01CC042E01AC0F801A080B1802D
:1001D0000E5F1F4FF50181915F01882351F30E944B
:1001E0007100F8CF5801F2E0AF0EB11CF801808128
:1001F0000E9471008501DDCF40E101C04AE0580155
:10020000F2E0AF0EB11C50E0B701F801808191819E
:100210000E94CC02F701CF018E199F092191211173
:10022000FACF262D30E082179307C4F4681AF6013E
:10023000862D90E09F012C193D092817390714F4E9
:100240007192F8CFF601E80FF91F1082B701C601CD
:100250000E94BA02B601C7010E94C502C7010E94EE
:100260007C008501612CA5CF0E9471004201A1CFC5
:1002700064960FB6F894DEBF0FBECDBFDF91CF916D
:100280001F910F91FF90EF90DF90CF90BF90AF90B4
:100290009F908F907F906F905F904F900895CF9335
:1002A000DF93EC0184E091E00E947C00CE010E948B
:1002B0007C008FE491E0DF91CF910C947C00CF9390
:1002C000DF93EC0182E191E00E947C00CE010E946C
:1002D0007C008FE491E0DF91CF910C947C008093BF
:1002E000BA00ECEBF0E080818F7D808380818564B3
:1002F0008083789408959091DA01292F30E0F901F4
:10030000E451FE4F8083F901EE0FFF1FE352FE4FD1
:1003100071836083F901EB51FE4F40839F5F90939F
:10032000DA0108954330A8F42091DA0130E0ECEED0
:10033000F1E0A42FB0E0A751BE4FAF014C5E514099
:10034000421753072CF491919813F7CF6C93F5CF84
:1003500008951F928F9386E291E09F938F930E945E
:1003600088000F900F900F900F900895FF920F93B9
:100370001F93CF93DF93F82ECCEED1E00DED11E07B
:100380002091DA0130E0AE014C5E51404217530734
:1003900064F489918F1106C0D801ED91FC9189EE2A
:1003A00091E009950E5F1F4FEBCFDF91CF911F9129
:1003B0000F91FF9008951F920F920FB60F92112484
:1003C0002F933F934F935F936F937F938F939F935D
:1003D000AF93BF93EF93FF938091B900887F803AEA
:1003E00011F128F4803629F1803831F024C0883AA0
:1003F00001F1883BF1F01FC04091D901411106C0C5
:100400008091BB008093D80181E00AC06091BB005D
:1004100041508091D8010E9492018091D9018F5F53
:100420008093D90106C08091D8010E94B601109234
:10043000D90185EC01C085ED8093BC00FF91EF915F
:10044000BF91AF919F918F917F916F915F914F91EC
:100450003F912F910F900FBE0F901F901895CF9343
:10046000DF93EC0181E591E00E947C00CE010E94C7
:100470007C008FE491E0DF91CF910C947C00CF93CE
:10048000DF93EC0180E691E00E947C00CE010E94A7
:100490007C008FE491E0DF91CF910C947C0060E8C8
:1004A00075E280E090E00E9453002FEF81EE94E02F
:1004B000215080409040E1F700C000008FE691E0BD
:1004C0000E947C008FE991E00E947C0085EB91E026
:1004D0000E947C0082E10E946F0143E06FE471E0C2
:1004E00080E10E947B0142E06FE571E081E10E94C2
:1004F0007B01FFCFA1E21A2EAA1BBB1BFD010DC081
:10050000AA1FBB1FEE1FFF1FA217B307E407F507C3
:1005100020F0A21BB30BE40BF50B661F771F881F9F
:10052000991F1A9469F760957095809590959B0135
:10053000AC01BD01CF010895FC0188279927E894FB
:1005400021912032E9F3293010F02E30C8F32B32FC
:1005500041F02D3239F4689404C00E94E202820F07
:10056000911D219120532A30C0F31EF4909581955E
:100570009F4F0895FB01DC010D900020E9F71197D2
:1005800001900D920020E1F70895FB01DC0101903C
:100590000D920020E1F708954532510520F44230D4
:1005A00010F00C94D702FB011082CB010895BB27F9
:1005B0004A3031F4992322F4BDE2909581959F4F02
:1005C0000C94EB027AE0979F902D879F802D910DE0
:1005D00011240895BB27FB015527AA27880F991FCF
:1005E000AA1FA41710F0A41B83955051B9F7A05D62
:1005F000AA3308F0A95DA193009779F7B111B193DF
:100600001192CB010C940403DC01FC01672F719162
:100610007723E1F7329704C07C916D9370836291E8
:0C062000AE17BF07C8F30895F894FFCF91
:10062C00F101F101636F6D6D616E643A206C65646C
:10063C002000636F6D6D616E643A20616E696D614F
:10064C0074696F6E20004552524F523A2074776F86
:10065C00206D616E7920617267756D656E747320A3
:10066C00666F7220636F6D6D616E64202578200A51
:10067C0000636F6D6D616E643A2066616E4120009F
:10068C00636F6D6D616E643A2066616E4220004C42
:10069C00454420616E642046616E20436F6E747217
:1006AC006F6C20426F6172642028432920334461AF
:1006BC00746F7220476D624820323031350A004623
:1006CC0069726D776172652076657273696F6E20E1
:1006DC00302E310A00436F6D70696C656420617453
:1006EC00204F637420203920323031352032323A99
:0806FC0034393A30370A0000DE
:00000001FF
