:100000000C9434000C9441020C9451000C94510057
:100010000C9451000C9451000C9451000C9451001C
:100020000C9451000C9451000C9451000C9451000C
:100030000C9451000C9451000C944B020C94510000
:100040000C9451000C9451000C9451000C945100EC
:100050000C9451000C9451000C9451000C945100DC
:100060000C94CD010C94510011241FBECFEFD8E0A9
:10007000DEBFCDBF11E0A0E0B1E0EAE7F7E002C0EB
:1000800005900D92AA39B107D9F722E0AAE9B1E0AB
:1000900001C01D92AC3BB207E1F70E94D8020C945C
:1000A000BB030C940000FC0182812181908190931C
:1000B000B30030E0309389002093880090E0909363
:1000C0008B0080938A00089508959B01AC0188E11C
:1000D0008093C10084E0220F331F441F551F8A956F
:1000E000D1F760E074E284EF90E00E942103215098
:1000F00031093093C5002093C400809155028B7F55
:100100008093550208959091550292FD06C09091FA
:10011000C00095FFFCCF8093C6000895CF93DF9376
:10012000EC018991882319F00E948300FACFDF91B6
:10013000CF9108954F925F926F927F928F929F928C
:10014000AF92BF92CF92DF92EF92FF920F931F93E5
:10015000CF93DF93CDB7DEB764970FB6F894DEBFC9
:100160000FBECDBFFE01B796A190B1908F01612C5B
:100170007E018BE0E80EF11CFE0131966F0190E3E9
:10018000792E2501FFEF4F1A5F0AF501849188232C
:1001900009F480C0853209F079C04501F2E08F0E84
:1001A000911CF2012491822F90E0C0970A9760F48D
:1001B00029831A82C6010E944303682EF3E0AF0E22
:1001C000B11CF40124914501293651F130F4223655
:1001D00061F02336C9F05401D4CF233741F02837DA
:1001E000E9F02F36C1F748E01CC042E01AC0F80120
:1001F000A080B1800E5F1F4FF50181915F018823C0
:1002000051F30E948300F8CF5801F2E0AF0EB11C09
:10021000F80180810E9483008501DDCF40E101C0AB
:100220004AE05801F2E0AF0EB11C50E0B701F8010E
:10023000808191810E947303F701CF018E199F097C
:1002400021912111FACF262D30E082179307C4F4B3
:10025000681AF601862D90E09F012C193D09281798
:10026000390714F47192F8CFF601E80FF91F1082E4
:10027000B701C6010E946103B601C7010E946C0369
:10028000C7010E948E008501612CA5CF0E948300CA
:100290004201A1CF64960FB6F894DEBF0FBECDBF6A
:1002A000DF91CF911F910F91FF90EF90DF90CF9052
:1002B000BF90AF909F908F907F906F905F904F9086
:1002C00008958093BA00ECEBF0E080818F7D80830D
:1002D0008081856480837894089590919D01292F71
:1002E00030E0F901EF5AFD4F8083F901EE0FFF1F57
:1002F000E056FE4F71836083F901E855FE4F40835D
:100300009F5F90939D0108954330A8F420919D0133
:1003100030E0E1E5F2E0A42FB0E0A455BE4FAF011C
:1003200041555240421753072CF491919813F7CF3F
:100330006C93F5CF08951F928F9386E091E09F9381
:100340008F930E949A000F900F900F900F90089536
:10035000FF920F931F93CF93DF93F82EC1E5D2E066
:1003600000EA11E020919D0130E0AE01415552407C
:100370004217530764F489918F1106C0D801ED919B
:10038000FC918CEA91E009950E5F1F4FEBCFDF9156
:10039000CF911F910F91FF9008951F920F920FB66A
:1003A0000F9211242F933F934F935F936F937F93FB
:1003B0008F939F93AF93BF93EF93FF938091B90077
:1003C000887F803A11F128F4803629F1803831F0A5
:1003D00024C0883A01F1883BF1F01FC040919C0194
:1003E000411106C08091BB0080939B0181E00AC04F
:1003F0006091BB00415080919B010E9484018091DB
:100400009C018F5F80939C0106C080919B010E949C
:10041000A80110929C0185EC01C085ED8093BC0081
:10042000FF91EF91BF91AF919F918F917F916F91CC
:100430005F914F913F912F910F900FBE0F901F90A2
:1004400018958093BA020895E89AE9E6F0E0808171
:10045000886080838081826080831AB87894559AFE
:1004600084B5826084BD85B5826085BDEEE6F0E02E
:1004700080818260808381E08093BA028FE787BDAC
:1004800008951F920F920FB60F9211240F900FBE76
:100490000F901F9018951F920F920FB60F92112474
:1004A0008F939F9380919A018F5F80939A0190918F
:1004B000BA02891710F45D9A01C05D989F918F91DF
:1004C0000F900FBE0F901F9018950F931F93E09100
:1004D0000001F091010120E030E02E173F0778F491
:1004E000D901A155BE4F8C93D901A055BE4F6C9335
:1004F000D901AF54BE4F4C932D5F3F4FEECF8FB716
:10050000F894AFEAB1E01CC00000000000005C9865
:100510000000000000000000000000000BC0000010
:100520000000000000000000000000005C980000D7
:10053000000000001A9539F05C9A000F28F7EFCF01
:100540000D9118E0F9CF3197D9F78FBF1F910F9117
:1005500008958093B30070E07093890060938800E1
:1005600050E050938B0040938A0008950895E0E88E
:10057000F0E08081816A8083E1E8F0E08081816041
:100580008083E0EBF0E0808181688083E1EBF0E044
:1005900080818160808384B18E6084B98BB18E60EC
:1005A0008BB90895FC0180818093BA020895089563
:1005B00060E875E280E090E00E9465002FEF41EE78
:1005C00084E0215040408040E1F700C0000081E31A
:1005D00091E00E948E0081E691E00E948E0087E704
:1005E00091E00E948E0082E10E94610143E063E598
:1005F00070E080E10E946D0142E064E670E081E11C
:100600000E946D010E9424020E94B70220E03FEF89
:100610002093B300822F90E090938900809388000C
:1006200090938B0080938A002F5F3093BA029FEFE4
:1006300049EF80E0915040408040E1F700C0000069
:10064000E7CFA1E21A2EAA1BBB1BFD010DC0AA1FFA
:10065000BB1FEE1FFF1FA217B307E407F50720F02B
:10066000A21BB30BE40BF50B661F771F881F991FA6
:100670001A9469F760957095809590959B01AC01EF
:10068000BD01CF010895FC0188279927E8942191A5
:100690002032E9F3293010F02E30C8F32B3241F02C
:1006A0002D3239F4689404C00E948903820F911D91
:1006B000219120532A30C0F31EF4909581959F4FCD
:1006C0000895FB01DC010D900020E9F711970190DE
:1006D0000D920020E1F70895FB01DC0101900D92DD
:1006E0000020E1F708954532510520F4423010F022
:1006F0000C947E03FB011082CB010895BB274A3086
:1007000031F4992322F4BDE2909581959F4F0C948A
:1007100092037AE0979F902D879F802D910D112451
:100720000895BB27FB015527AA27880F991FAA1FE9
:10073000A41710F0A41B83955051B9F7A05DAA33FC
:1007400008F0A95DA193009779F7B111B1931192C7
:10075000CB010C94AB03DC01FC01672F7191772373
:10076000E1F7329704C07C916D9370836291AE176C
:0A077000BF07C8F30895F894FFCF07
:10077A00A200560256024552524F523A2074776FDF
:10078A00206D616E7920617267756D656E74732074
:10079A00666F7220636F6D6D616E64202578200A22
:1007AA00004C454420616E642046616E20436F6EA2
:1007BA0074726F6C20426F6172642028432920335F
:1007CA004461746F7220476D624820323031350AB5
:1007DA00004669726D776172652076657273696F1A
:1007EA006E20302E310A00436F6D70696C6564208B
:1007FA006174204F63742031342032303135203215
:0A080A00323A35383A32310A000064
:00000001FF
