:100000000C9434000C9451000C9451000C94510049
:100010000C9451000C9451000C9451000C9451001C
:100020000C9451000C9451000C9451000C9451000C
:100030000C9451000C9451000C9451000C945100FC
:100040000C9451000C9451000C9451000C945100EC
:100050000C9451000C9451000C9451000C945100DC
:100060000C9476010C94510011241FBECFEFD8E000
:10007000DEBFCDBF11E0A0E0B1E0ECEFF4E002C0E4
:1000800005900D92AC33B107D9F721E0ACE3B1E0B4
:1000900001C01D92A93AB207E1F70E94BA010C947F
:1000A0007C020C94000083E4089590913C0191112E
:1000B00002C080933C0108959B01AC0188E18093CC
:1000C000C10084E0220F331F441F551F8A95D1F7CA
:1000D00060E074E284EF90E00E94E2012150310977
:1000E0003093C5002093C40080913F018B7F8093A3
:1000F0003F01089590913F0192FD06C09091C0008C
:1001000095FFFCCF8093C6000895CF93DF93EC0159
:100110008991882319F00E947A00FACFDF91CF915C
:1001200008954F925F926F927F928F929F92AF92BB
:10013000BF92CF92DF92EF92FF920F931F93CF93D4
:10014000DF93CDB7DEB764970FB6F894DEBF0FBE6E
:10015000CDBFFE01B796A190B1908F01612C7E01B9
:100160008BE0E80EF11CFE0131966F0190E3792ED1
:100170002501FFEF4F1A5F0AF5018491882309F4E6
:1001800080C0853209F079C04501F2E08F0E911CE4
:10019000F2012491822F90E0C0970A9760F429839E
:1001A0001A82C6010E940402682EF3E0AF0EB11C51
:1001B000F40124914501293651F130F4223661F0E1
:1001C0002336C9F05401D4CF233741F02837E9F062
:1001D0002F36C1F748E01CC042E01AC0F801A080E9
:1001E000B1800E5F1F4FF50181915F01882351F3AC
:1001F0000E947A00F8CF5801F2E0AF0EB11CF8016E
:1002000080810E947A008501DDCF40E101C04AE093
:100210005801F2E0AF0EB11C50E0B701F801808147
:1002200091810E943402F701CF018E199F0921911B
:100230002111FACF262D30E082179307C4F4681AF3
:10024000F601862D90E09F012C193D0928173907EA
:1002500014F47192F8CFF601E80FF91F1082B7017C
:10026000C6010E942202B601C7010E942D02C701E9
:100270000E9485008501612CA5CF0E947A00420171
:10028000A1CF64960FB6F894DEBF0FBECDBFDF914D
:10029000CF911F910F91FF90EF90DF90CF90BF9083
:1002A000AF909F908F907F906F905F904F90089548
:1002B0008093BA00ECEBF0E080818F7D80838081B9
:1002C000856480837093A5016093A4015093A80175
:1002D0004093A701789408959093A5018093A40179
:1002E00008959093A8018093A70108951F920F92FB
:1002F0000FB60F9211242F933F934F935F936F93F9
:100300007F938F939F93AF93BF93EF93FF938091CE
:10031000B900887F803AC1F060F48036A9F0803857
:10032000A9F48091BB00E091A401F091A501099589
:100330000BC0883A11F0883B49F4E091A701F09195
:10034000A80109958093BB0085EC01C085ED8093E1
:10035000BC00FF91EF91BF91AF919F918F917F91E1
:100360006F915F914F913F912F910F900FBE0F9022
:100370001F90189560E875E280E090E00E945C00B4
:100380002FEF81EE94E0215080409040E1F700C0D3
:10039000000084E091E00E94850043E550E065E5BF
:1003A00070E082E10E9458012FEF83ED90E321502D
:1003B00080409040E1F700C0000084E391E00E949B
:1003C0008500F2CFA1E21A2EAA1BBB1BFD010DC0B6
:1003D000AA1FBB1FEE1FFF1FA217B307E407F507F5
:1003E00020F0A21BB30BE40BF50B661F771F881FD1
:1003F000991F1A9469F760957095809590959B0167
:10040000AC01BD01CF010895FC0188279927E8942C
:1004100021912032E9F3293010F02E30C8F32B322D
:1004200041F02D3239F4689404C00E944A02820FD0
:10043000911D219120532A30C0F31EF4909581958F
:100440009F4F0895FB01DC010D900020E9F7119703
:1004500001900D920020E1F70895FB01DC0101906D
:100460000D920020E1F708954532510520F4423005
:1004700010F00C943F02FB011082CB010895BB27C2
:100480004A3031F4992322F4BDE2909581959F4F33
:100490000C9453027AE0979F902D879F802D910DA9
:1004A00011240895BB27FB015527AA27880F991F00
:1004B000AA1FA41710F0A41B83955051B9F7A05D93
:1004C000AA3308F0A95DA193009779F7B111B19310
:1004D0001192CB010C946C02DC01FC01672F71912D
:1004E0007723E1F7329704C07C916D93708362911A
:0C04F000AE17BF07C8F30895F894FFCFC3
:1004FC00400140014C454420616E642046616E20F1
:10050C00436F6E74726F6C20426F6172642028436B
:10051C002920334461746F7220476D624820323059
:0C052C0031350A0054455354320A0000D7
:00000001FF
