:100000000C9472000C9493000C9493000C94930045
:100010000C9493000C9493000C9493000C94930014
:100020000C9493000C9493000C9493000C94930004
:100030000C9493000C9493000C9493000C949300F4
:100040000C9493000C9493000C9493000C949300E4
:100050000C9493000C9493000C9493000C949300D4
:100060000C9493000C9493000C9493000C949300C4
:100070000C9493000C9493000C9493000C949300B4
:100080000C9493000C9493000C9493000C949300A4
:100090000C9493000C9493000C9493000C94930094
:1000A0000C9493000C9493000C9493000C94930084
:1000B0000C9493000C9493000C9493000C94930074
:1000C0000C9493000C9493000C9493000C94930064
:1000D0000C9493000C9493000C9493000C94930054
:1000E0000C94930011241FBECFEFD1E2DEBFCDBF31
:1000F00000E00CBF12E0A0E0B2E0E6EDF5E000E0C9
:100100000BBF02C007900D92A032B107D9F722E0D1
:10011000A0E2B2E001C01D92A838B207E1F70E9448
:100120000F020C94E9020C9400009B01AC0188E1E1
:100130008093C10084E0220F331F441F551F8A950E
:10014000D1F760E074E284EF90E00E944F0221500A
:1001500031093093C5002093C400809122028B7F27
:100160008093220208959091220292FD06C0909100
:10017000C00095FFFCCF8093C6000895CF93DF9316
:10018000EC018991882319F00E94B300FACFDF9126
:10019000CF9108954F925F926F927F928F929F922C
:1001A000AF92BF92CF92DF92EF92FF920F931F9385
:1001B000CF93DF93CDB7DEB764970FB6F894DEBF69
:1001C0000FBECDBFFE01B896A190B1908F01612CFA
:1001D0007E018BE0E80EF11CFE0131966F0190E389
:1001E000792E2501FFEF4F1A5F0AF50184918823CC
:1001F00009F480C0853209F079C04501F2E08F0E24
:10020000911CF2012491822F90E0C0970A9760F42C
:1002100029831A82C6010E947102682EF3E0AF0E94
:10022000B11CF40124914501293651F130F42236F4
:1002300061F02336C9F05401D4CF233741F0283779
:10024000E9F02F36C1F748E01CC042E01AC0F801BF
:10025000A080B1800E5F1F4FF50181915F0188235F
:1002600051F30E94B300F8CF5801F2E0AF0EB11C79
:10027000F80180810E94B3008501DDCF40E101C01B
:100280004AE05801F2E0AF0EB11C50E0B701F801AE
:10029000808191810E94A102F701CF018E199F09EF
:1002A00021912111FACF262D30E082179307C4F453
:1002B000681AF601862D90E09F012C193D09281738
:1002C000390714F47192F8CFF601E80FF91F108284
:1002D000B701C6010E948F02B601C7010E949A02AF
:1002E000C7010E94BE008501612CA5CF0E94B3000A
:1002F0004201A1CF64960FB6F894DEBF0FBECDBF0A
:10030000DF91CF911F910F91FF90EF90DF90CF90F1
:10031000BF90AF909F908F907F906F905F904F9025
:1003200008951092B90088E48093B800089594EA83
:100330009093BC009091BC0097FFFCCF9091B900C6
:10034000987F983021F0903111F081E008958093EA
:10035000BB0084E88093BC008091BC0087FFFCCF89
:100360008091B900887F883111F0803471F780E086
:10037000089524EA34E844E92093BC009091BC003D
:1003800097FFFCCF9091B900987F983011F0903191
:1003900099F78093BB003093BC009091BC0097FF0D
:1003A000FCCF9091B900987F903211F0983539F4D4
:1003B0004093BC009091BC0094FDFCCFDDCF08952C
:1003C0000C94970184E98093BC008091BC0084FD6B
:1003D000FCCF08958093BB0084E88093BC0080919B
:1003E000BC0087FFFCCF9091B900987F81E09832E4
:1003F00009F480E0089584EC8093BC008091BC00F7
:1004000087FFFCCF8091BB00089584E88093BC00F7
:100410008091BC0087FFFCCF8091BB000895CF93F3
:10042000DF9300D0CDB7DEB760E875E280E090E002
:100430000E9495000E94910184E092E00E94BE001B
:1004400081E6898382E68A831B8282E10E94B90168
:1004500080E00E94EA0183E10E94E0010E9405021F
:1004600040E1BE016F5F7F4F90E00E94AC020E94AE
:10047000E20185E192E00E94BE00CE0101960E9459
:10048000BE0083E192E00E94BE002FEF83ED90E377
:10049000215080409040E1F700C00000D6CFA1E29B
:1004A0001A2EAA1BBB1BFD010DC0AA1FBB1FEE1FEE
:1004B000FF1FA217B307E407F50720F0A21BB30B39
:1004C000E40BF50B661F771F881F991F1A9469F7B5
:1004D00060957095809590959B01AC01BD01CF0111
:1004E0000895FC0188279927E89421912032E9F3A7
:1004F000293010F02E30C8F32B3241F02D3239F470
:10050000689404C00E94B702820F911D219120536C
:100510002A30C0F31EF4909581959F4F0895FB01FA
:10052000DC010D900020E9F7119701900D92002059
:10053000E1F70895FB01DC0101900D920020E1F745
:1005400008954532510520F4423010F00C94AC026D
:10055000FB011082CB010895BB274A3031F4992367
:1005600022F4BDE2909581959F4F0C94C0027AE0F1
:10057000979F902D879F802D910D11240895BB2763
:10058000FB015527AA27880F991FAA1FA41710F04F
:10059000A41B83955051B9F7A05DAA3308F0A95D5B
:1005A000A193009779F7B111B1931192CB010C94FB
:1005B000D902DC01FC01672F71917723E1F73297B3
:1005C00004C07C916D9370836291AE17BF07C8F32E
:0605D0000895F894FFCF2E
:1005D60023022302493243204D617374657220540D
:1005E6006573740A006E657720427974653A000077
:00000001FF
